:020000040800F2
:1000000000000320451E0008971E0008A51E0008DA
:10001000AB1E0008B11E0008B71E0008000000005B
:10002000000000000000000000000000BD1E0008ED
:10003000CB1E000800000000D91E0008651800084B
:10004000951E0008951E0008951E0008951E0008C4
:10005000951E0008951E0008951E0008951E0008B4
:10006000951E0008951E0008951E0008951E0008A4
:10007000951E0008951E0008951E0008951E000894
:10008000951E0008951E0008951E0008951E000884
:10009000951E0008951E0008951E0008951E000874
:1000A000951E0008951E0008951E0008B51B000847
:1000B000951E0008951E0008951E0008951E000854
:1000C000951E0008951E0008951E0008951E000844
:1000D000951E0008951E0008951E0008951E000834
:1000E000951E0008951E0008951E0008951E000824
:1000F000951E0008951E0008951E0008951E000814
:10010000951E0008951E0008951E0008951E000803
:10011000951E0008951E0008951E0008951E0008F3
:10012000951E0008951E0008951E0008951E0008E3
:10013000951E0008951E0008951E0008951E0008D3
:10014000951E0008951E0008951E0008951E0008C3
:10015000951E0008951E0008951E0008951E0008B3
:10016000951E0008951E0008951E0008951E0008A3
:10017000951E0008951E0008951E0008951E000893
:10018000951E0008951E0008951E0008951E000883
:10019000951E0008951E0008951E0008951E000873
:0C01A000951E0008951E0008951E000822
:1001AC0010B5054C237833B9044B13B10448AFF3A5
:1001BC0000800123237010BD00000020000000000F
:1001CC009420000808B5034B1BB103490348AFF357
:1001DC00008008BD000000000400002094200008EE
:1001EC0080B400AF1A4A1A4B5B6823F40033536097
:1001FC00174A174B5B6823F480335360154A154B31
:10020C005B6823F000735360124A124B5B6823F057
:10021C00807353600F4A0F4B9B6823F40063936009
:10022C000C4A0C4B9B6843F002039360094B002271
:10023C00DA60084B00221A61064A064B9B6843F0B1
:10024C000103936000BFBD465DF8047B704700BF9F
:10025C00004401400020014080B400AF0F4A0F4B16
:10026C00DB6A23F48013D3620C4A0C4BDB6A23F455
:10027C000013D362094A094BDB6A23F48003D3626F
:10028C00064A064BDB6A23F40003D362034B0522B8
:10029C005A6300BFBD465DF8047B704700200140E7
:1002AC0080B483B000AF0023FB800C4A0B4B9B68DF
:1002BC0043F08043936000BF084B1B685B0803F05E
:1002CC000103002BF8D0054BDB6CFB80FB88184638
:1002DC000C37BD465DF8047B704700BF0020014021
:1002EC0090B482B000AF0446084611461A46234625
:1002FC00FB710346BB710B467B7113463B71FB795B
:10030C000A2B00F24A8301A252F823F0450300089D
:10031C00D10300085D040008E90400083106000858
:10032C00A505000849070008BD060008910800084B
:10033C00050800081D090008BB790F2B00F22F835C
:10034C008949894B1B68BA795200032000FA02F2E2
:10035C00D24313400B608448834B1B687979BA797C
:10036C00520001FA02F21343036080497F4B1B6871
:10037C00BA795200032000FA02F2D24313400B6008
:10038C007A487A4B1B68397CBA79520001FA02F22E
:10039C00134303603B79002B0AD17549744B1B68DE
:1003AC00BA79012000FA02F2D24313400B60F6E254
:1003BC006F496F4B1B68BA79012000FA02F21343A4
:1003CC000B60ECE2BB790F2B00F2EB826949694BB5
:1003DC001B68BA795200032000FA02F2D243134090
:1003EC000B606448634B1B687979BA79520001FA47
:1003FC0002F21343036060495F4B1B68BA795200E9
:10040C00032000FA02F2D24313400B605A485A4BB5
:10041C001B68397CBA79520001FA02F2134303606B
:10042C003B79002B0AD15549544B1B68BA790120F2
:10043C0000FA02F2D24313400B60B2E24F494F4B29
:10044C001B68BA79012000FA02F213430B60A8E290
:10045C00BB790F2B00F2A7824949494B1B68BA792B
:10046C005200032000FA02F2D24313400B604448BE
:10047C00434B1B687979BA79520001FA02F21343A3
:10048C00036040493F4B1B68BA795200032000FAC5
:10049C0002F2D24313400B603A483A4B1B68397C4A
:1004AC00BA79520001FA02F2134303603B79002B34
:1004BC000AD13549344B1B68BA79012000FA02F293
:1004CC00D24313400B606EE22F492F4B1B68BA7955
:1004DC00012000FA02F213430B6064E2BB790F2B8C
:1004EC0000F263822949294B1B68BA795200032018
:1004FC0000FA02F2D24313400B602448234B1B68D2
:10050C007979BA79520001FA02F213430360204957
:10051C001F4B1B68BA795200032000FA02F2D24337
:10052C0013400B601A481A4B1B68397CBA7952007D
:10053C0001FA02F2134303603B79002B0AD11549EF
:10054C00144B1B68BA79012000FA02F2D243134013
:10055C000B602AE20F490F4B1B68BA79012000FA95
:10056C0002F213430B6020E200000240080002403C
:10057C00040002400004024008040240040402404B
:10058C00000802400808024004080240000C024027
:10059C00080C0240040C0240BB790F2B00F20782BE
:1005AC008949894B1B68BA795200032000FA02F280
:1005BC00D24313400B608448834B1B687979BA791A
:1005CC00520001FA02F21343036080497F4B1B680F
:1005DC00BA795200032000FA02F2D24313400B60A6
:1005EC007A487A4B1B68397CBA79520001FA02F2CC
:1005FC00134303603B79002B0AD17549744B1B687C
:10060C00BA79012000FA02F2D24313400B60CEE11A
:10061C006F496F4B1B68BA79012000FA02F2134341
:10062C000B60C4E1BB790F2B00F2C3816949694BA4
:10063C001B68BA795200032000FA02F2D24313402D
:10064C000B606448634B1B687979BA79520001FAE4
:10065C0002F21343036060495F4B1B68BA79520086
:10066C00032000FA02F2D24313400B605A485A4B53
:10067C001B68397CBA79520001FA02F21343036009
:10068C003B79002B0AD15549544B1B68BA79012090
:10069C0000FA02F2D24313400B608AE14F494F4BF0
:1006AC001B68BA79012000FA02F213430B6080E157
:1006BC00BB790F2B00F27F814949494B1B68BA79F2
:1006CC005200032000FA02F2D24313400B6044485C
:1006DC00434B1B687979BA79520001FA02F2134341
:1006EC00036040493F4B1B68BA795200032000FA63
:1006FC0002F2D24313400B603A483A4B1B68397CE8
:10070C00BA79520001FA02F2134303603B79002BD1
:10071C000AD13549344B1B68BA79012000FA02F230
:10072C00D24313400B6046E12F492F4B1B68BA791B
:10073C00012000FA02F213430B603CE1BB790F2B52
:10074C0000F23B812949294B1B68BA7952000320DE
:10075C0000FA02F2D24313400B602448234B1B686F
:10076C007979BA79520001FA02F2134303602049F5
:10077C001F4B1B68BA795200032000FA02F2D243D5
:10078C0013400B601A481A4B1B68397CBA7952001B
:10079C0001FA02F2134303603B79002B0AD115498D
:1007AC00144B1B68BA79012000FA02F2D2431340B1
:1007BC000B6002E10F490F4B1B68BA79012000FA5C
:1007CC0002F213430B60F8E00014024008140240DC
:1007DC0004140240001002400810024004100240B1
:1007EC00001C0240081C0240041C0240001802407D
:1007FC000818024004180240BB790F2B00F2DF806E
:10080C007449744B1B68BA795200032000FA02F247
:10081C00D24313400B606F486E4B1B687979BA79E1
:10082C00520001FA02F2134303606B496A4B1B68D6
:10083C00BA795200032000FA02F2D24313400B6043
:10084C006548654B1B68397CBA79520001FA02F293
:10085C00134303603B79002B0AD160495F4B1B6843
:10086C00BA79012000FA02F2D24313400B60A6E0E1
:10087C005A495A4B1B68BA79012000FA02F2134309
:10088C000B609CE0BB790F2B00F29B805449544BBE
:10089C001B68BA795200032000FA02F2D2431340CB
:1008AC000B604F484E4B1B687979BA79520001FAAC
:1008BC0002F2134303604B494A4B1B68BA7952004E
:1008CC00032000FA02F2D24313400B604548454B1B
:1008DC001B68397CBA79520001FA02F213430360A7
:1008EC003B79002B0AD140493F4B1B68BA79012058
:1008FC0000FA02F2D24313400B6062E03A493A4BE1
:10090C001B68BA79012000FA02F213430B6058E01D
:10091C00BB790F2B57D83549344B1B68BA79520029
:10092C00032000FA02F2D24313400B602F482F4BE6
:10093C001B687979BA79520001FA02F21343036009
:10094C002B492B4B1B68BA795200032000FA02F298
:10095C00D24313400B602648254B1B68397CBA796F
:10096C00520001FA02F2134303603B79002B0AD1C7
:10097C002049204B1B68BA79012000FA02F2D243BD
:10098C0013400B601FE01B491A4B1B68BA790120FE
:10099C0000FA02F213430B6015E000BF14E000BF35
:1009AC0012E000BF10E000BF0EE000BF0CE000BF83
:1009BC000AE000BF08E000BF06E000BF04E000BF93
:1009CC0002E000BF00E000BF00BF0837BD4690BC8E
:1009DC00704700BF00240240082402400424024057
:1009EC00002002400820024004200240002802405F
:1009FC00082802400428024080B483B000AF0346AC
:100A0C00FB710B46BB7113467B71BB790F2B00F24C
:100A1C001081FB790A2B00F20B8101A252F823F012
:100A2C00590A0008850A0008B10A0008DD0A000806
:100A3C00350B0008090B0008610B00088D0B000832
:100A4C00B90B0008E50B0008110C00087C497C4B25
:100A5C001B68BA795200032000FA02F2D243134009
:100A6C000B607748764B1B687979BA79520001FA9A
:100A7C0002F213430360DCE07249724B1B68BA79D3
:100A8C005200032000FA02F2D24313400B606D486F
:100A9C006C4B1B687979BA79520001FA02F2134354
:100AAC000360C6E06849684B1B68BA7952000320A2
:100ABC0000FA02F2D24313400B606348624B1B688E
:100ACC007979BA79520001FA02F213430360B0E06B
:100ADC005E495E4B1B68BA795200032000FA02F2A1
:100AEC00D24313400B605948584B1B687979BA793B
:100AFC00520001FA02F2134303609AE05449544B3A
:100B0C001B68BA795200032000FA02F2D243134058
:100B1C000B604F484E4B1B687979BA79520001FA39
:100B2C0002F21343036084E04A494A4B1B68BA79CA
:100B3C005200032000FA02F2D24313400B604548E6
:100B4C00444B1B687979BA79520001FA02F21343CB
:100B5C0003606EE04049404B1B68BA795200032099
:100B6C0000FA02F2D24313400B603B483A4B1B682D
:100B7C007979BA79520001FA02F21343036058E012
:100B8C003649364B1B68BA795200032000FA02F240
:100B9C00D24313400B603148304B1B687979BA79DA
:100BAC00520001FA02F21343036042E02C492C4B31
:100BBC001B68BA795200032000FA02F2D2431340A8
:100BCC000B602748264B1B687979BA79520001FAD9
:100BDC0002F2134303602CE02249224B1B68BA79C2
:100BEC005200032000FA02F2D24313400B601D485E
:100BFC001C4B1B687979BA79520001FA02F2134343
:100C0C00036016E01849184B1B68BA795200032090
:100C1C0000FA02F2D24313400B601348124B1B68CC
:100C2C007979BA79520001FA02F21343036000E0B9
:100C3C0000BF00BF0C37BD465DF8047B704700BF9A
:100C4C00000002400004024000080240000C024078
:100C5C00001402400010024000180240001C024028
:100C6C0000200240002402400028024080B483B0DF
:100C7C0000AF0346FB710B46BB7113467B71BB790E
:100C8C000F2B00F21081FB790A2B00F20B8101A2D1
:100C9C0052F823F0CD0C0008250D0008F90C0008C3
:100CAC00510D0008A90D00087D0D0008D50D000898
:100CBC00010E0008590E00082D0E0008850E0008C4
:100CCC007C497C4B1B68BA795200032000FA02F273
:100CDC00D24313400B607748764B1B687979BA790D
:100CEC00520001FA02F213430360DCE07249724BCA
:100CFC001B68BA795200032000FA02F2D243134067
:100D0C000B606D486C4B1B687979BA79520001FA0B
:100D1C0002F213430360C6E06849684B1B68BA795A
:100D2C005200032000FA02F2D24313400B606348D6
:100D3C00624B1B687979BA79520001FA02F21343BB
:100D4C000360B0E05E495E4B1B68BA795200032029
:100D5C0000FA02F2D24313400B605948584B1B68FF
:100D6C007979BA79520001FA02F2134303609AE0DE
:100D7C005449544B1B68BA795200032000FA02F212
:100D8C00D24313400B604F484E4B1B687979BA79AC
:100D9C00520001FA02F21343036084E04A494A4BC1
:100DAC001B68BA795200032000FA02F2D2431340B6
:100DBC000B604548444B1B687979BA79520001FAAB
:100DCC0002F2134303606EE04049404B1B68BA7952
:100DDC005200032000FA02F2D24313400B603B484E
:100DEC003A4B1B687979BA79520001FA02F2134333
:100DFC00036058E03649364B1B68BA795200032021
:100E0C0000FA02F2D24313400B603148304B1B689E
:100E1C007979BA79520001FA02F21343036042E085
:100E2C002C492C4B1B68BA795200032000FA02F2B1
:100E3C00D24313400B602748264B1B687979BA794B
:100E4C00520001FA02F2134303602CE02249224BB8
:100E5C001B68BA795200032000FA02F2D243134005
:100E6C000B601D481C4B1B687979BA79520001FA4A
:100E7C0002F21343036016E01849184B1B68BA7949
:100E8C005200032000FA02F2D24313400B601348C5
:100E9C00124B1B687979BA79520001FA02F21343AA
:100EAC00036000E000BF00BF0C37BD465DF8047B5B
:100EBC00704700BF0C0002400C0802400C040240BA
:100ECC000C0C02400C1402400C1002400C18024096
:100EDC000C1C02400C2402400C2002400C28024046
:100EEC0080B483B000AF0346FB710B46BB71134655
:100EFC007B71FB790A2B00F2498101A252F823F095
:100F0C00390F0008710F0008A90F0008E10F000845
:100F1C00511000081910000889100008C1100008B1
:100F2C00F71000082D110008631100087B79012BC4
:100F3C0009D1A149A04B1B68BA79012000FA02F231
:100F4C0013430B6024E17B79002B40F021819A49FB
:100F5C00994B1B68BA79012000FA02F2D243134074
:100F6C000B6015E17B79012B09D19449934B1B68DC
:100F7C00BA79012000FA02F213430B600AE17B7983
:100F8C00002B40F007818D498C4B1B68BA790120EE
:100F9C0000FA02F2D24313400B60FBE07B79012B89
:100FAC0009D18749864B1B68BA79012000FA02F2F5
:100FBC0013430B60F0E07B79002B40F0ED8080490F
:100FCC007F4B1B68BA79012000FA02F2D24313401E
:100FDC000B60E1E07B79012B09D17A49794B1B68D5
:100FEC00BA79012000FA02F213430B60D6E07B7948
:100FFC00002B40F0D3807349724B1B68BA790120E7
:10100C0000FA02F2D24313400B60C7E07B79012B4C
:10101C0009D16D496C4B1B68BA79012000FA02F2B8
:10102C0013430B60BCE07B79002B40F0B980664920
:10103C00654B1B68BA79012000FA02F2D2431340C7
:10104C000B60ADE07B79012B09D160495F4B1B68CC
:10105C00BA79012000FA02F213430B60A2E07B790B
:10106C00002B40F09F805949584B1B68BA790120DE
:10107C0000FA02F2D24313400B6093E07B79012B10
:10108C0009D15349524B1B68BA79012000FA02F27C
:10109C0013430B6088E07B79002B40F085804C4932
:1010AC004B4B1B68BA79012000FA02F2D243134071
:1010BC000B6079E07B79012B09D14649454B1B68C4
:1010CC00BA79012000FA02F213430B606EE07B79CF
:1010DC00002B6BD13F493F4B1B68BA79012000FABA
:1010EC0002F2D24313400B6060E07B79012B09D1F3
:1010FC003949394B1B68BA79012000FA02F21343C3
:10110C000B6055E07B79002B52D13349324B1B6875
:10111C00BA79012000FA02F2D24313400B6047E087
:10112C007B79012B09D12D492C4B1B68BA790120F5
:10113C0000FA02F213430B603CE07B79002B39D1AF
:10114C002649264B1B68BA79012000FA02F2D243D9
:10115C0013400B602EE07B79012B09D12049204BE9
:10116C001B68BA79012000FA02F213430B6039E0D4
:10117C007B79002B36D11A49194B1B68BA7901209F
:10118C0000FA02F2D24313400B602BE000BF2AE0BE
:10119C0000BF28E000BF26E000BF24E000BF22E033
:1011AC0000BF20E000BF1EE000BF1CE000BF1AE043
:1011BC0000BF18E000BF16E0140002401404024007
:1011CC0014080240140C0240141402401410024083
:1011DC0014180240141C0240142002401424024033
:1011EC001428024000BF00BF0C37BD465DF8047BDD
:1011FC00704700BF80B483B000AF0346FB710B4651
:10120C00BB7113467B71FB790A2B00F2818201A220
:10121C0052F823F04D12000825130008B9120008EB
:10122C009113000869140008FD1300080515000847
:10123C007115000849160008DD150008B3160008E2
:10124C00BB79072B15D8A0499F4B1B68BA79920024
:10125C000F2000FA02F2D24313400B609A489A4BCB
:10126C001B687979BA79920001FA02F21343036090
:10127C0050E2BB790F2B00F24D82BB79083BBB715E
:10128C009249924B1B68BA7992000F2000FA02F235
:10129C00D24313400B608D488C4B1B687979BA791B
:1012AC00920001FA02F21343036033E2BB79072B7D
:1012BC0015D88749864B1B68BA7992000F2000FA23
:1012CC0002F2D24313400B608148814B1B68797941
:1012DC00BA79920001FA02F2134303601CE2BB7963
:1012EC000F2B00F21982BB79083BBB717949794B02
:1012FC001B68BA7992000F2000FA02F2D243134015
:10130C000B607448734B1B687979BA79920001FAB7
:10131C0002F213430360FFE1BB79072B15D86E492A
:10132C006D4B1B68BA7992000F2000FA02F2D2437F
:10133C0013400B606848684B1B687979BA79920046
:10134C0001FA02F213430360E8E1BB790F2B00F2C0
:10135C00E581BB79083BBB716049604B1B68BA796E
:10136C0092000F2000FA02F2D24313400B605B484C
:10137C005A4B1B687979BA79920001FA02F213433D
:10138C000360CBE1BB79072B15D85549544B1B682F
:10139C00BA7992000F2000FA02F2D24313400B608C
:1013AC004F484F4B1B687979BA79920001FA02F2D7
:1013BC0013430360B4E1BB790F2B00F2B181BB790D
:1013CC00083BBB714749474B1B68BA7992000F2009
:1013DC0000FA02F2D24313400B604248414B1B68A7
:1013EC007979BA79920001FA02F21343036097E11A
:1013FC00BB79072B15D83C493B4B1B68BA7992003B
:10140C000F2000FA02F2D24313400B603648364BE1
:10141C001B687979BA79920001FA02F213430360DE
:10142C0080E1BB790F2B00F27D81BB79083BBB714E
:10143C002E492E4B1B68BA7992000F2000FA02F24B
:10144C00D24313400B602948284B1B687979BA7931
:10145C00920001FA02F21343036063E1BB79072B9C
:10146C0015D82349224B1B68BA7992000F2000FA39
:10147C0002F2D24313400B601D481D4B1B68797957
:10148C00BA79920001FA02F2134303604CE1BB7982
:10149C000F2B00F24981BB79083BBB711549154BE9
:1014AC001B68BA7992000F2000FA02F2D243134063
:1014BC000B6010480F4B1B687979BA79920001FACE
:1014CC0002F2134303602FE120000240240002408B
:1014DC002008024024080240200402402404024058
:1014EC00200C0240240C0240201402402414024020
:1014FC002010024024100240BB79072B15D89349C9
:10150C00924B1B68BA7992000F2000FA02F2D24378
:10151C0013400B608D488D4B1B687979BA7992001A
:10152C0001FA02F21343036000E1BB790F2B00F2C6
:10153C00FD80BB79083BBB718549854B1B68BA792B
:10154C0092000F2000FA02F2D24313400B60804845
:10155C007F4B1B687979BA79920001FA02F2134336
:10156C000360E3E0BB79072B15D87A49794B1B68EC
:10157C00BA7992000F2000FA02F2D24313400B60AA
:10158C007448744B1B687979BA79920001FA02F2AB
:10159C0013430360CCE0BB790F2B00F2C980BB79FD
:1015AC00083BBB716C496C4B1B68BA7992000F20DD
:1015BC0000FA02F2D24313400B606748664B1B687B
:1015CC007979BA79920001FA02F213430360AFE021
:1015DC00BB79072B15D86149604B1B68BA7992000F
:1015EC000F2000FA02F2D24313400B605B485B4BB6
:1015FC001B687979BA79920001FA02F213430360FD
:10160C0098E0BB790F2B00F29580BB79083BBB713E
:10161C005349534B1B68BA7992000F2000FA02F21F
:10162C00D24313400B604E484D4B1B687979BA7905
:10163C00920001FA02F2134303607BE0BB79072BA3
:10164C0015D84849474B1B68BA7992000F2000FA0D
:10165C0002F2D24313400B604248424B1B6879792B
:10166C00BA79920001FA02F21343036064E0BB7989
:10167C000F2B61D8BB79083BBB713B493A4B1B68BC
:10168C00BA7992000F2000FA02F2D24313400B6099
:10169C003548354B1B687979BA79920001FA02F218
:1016AC001343036048E0BB79072B15D82F492F4B08
:1016BC001B68BA7992000F2000FA02F2D243134051
:1016CC000B602A48294B1B687979BA79920001FA88
:1016DC0002F21343036031E0BB790F2B2ED8BB7998
:1016EC00083BBB712249224B1B68BA7992000F2030
:1016FC0000FA02F2D24313400B601D481C4B1B68CE
:10170C007979BA79920001FA02F21343036015E079
:10171C0000BF14E000BF12E000BF10E000BF0EE0FD
:10172C0000BF0CE000BF0AE000BF08E000BF06E00D
:10173C0000BF04E000BF02E000BF00E000BF00BF3C
:10174C000C37BD465DF8047B704700BF2018024083
:10175C0024180240201C0240241C02402024024079
:10176C002424024020200240242002402028024051
:10177C002428024080B400AF054B4FF480321A602D
:10178C00034B01229A6000BFBD465DF8047B704795
:10179C000038024080B483B000AF03460A46FB71A8
:1017AC001346BB71BB791F2B42D8FB79042B3FD856
:1017BC0001A252F823F000BFD9170008ED1700085A
:1017CC000118000815180008291800081B491B4BA4
:1017DC001B6BBA79012000FA02F213430B6327E06A
:1017EC001649164B5B6BBA79012000FA02F21343CF
:1017FC004B631DE01149114B9B6BBA79012000FA28
:10180C0002F213438B6313E00C490C4B1B6CBA793B
:10181C00012000FA02F213430B6409E00749074B5D
:10182C005B6CBA79012000FA02F213434B6400BFDF
:10183C0000BF0C37BD465DF8047B70470038024092
:10184C0080B400AF034B00221A6000BFBD465DF8A8
:10185C00047B704710E000E080B582B000AF124B03
:10186C001B78002B11D1114A104B1B6823F002037B
:10187C0013600E4A0D4B1B6823F0010313600B4BD6
:10188C0000225A60094B00229A60094B1B6898474A
:10189C00064B1B681B0CDBB203F00103FB7100BF92
:1018AC000837BD4680BD00BF1C00002010E000E0E2
:1018BC003000002080B400AF2D4A2D4B5B6943F003
:1018CC00010353612A4A2A4B1B6823F080031360DF
:1018DC00274A274B1B6823F010031360244A244B20
:1018EC001B6823F020031360214A214B1B6823F053
:1018FC00400313601E4B07229A621D4A1C4B9B69C6
:10190C0023F0010393611A4A194B9B6923F00203DC
:10191C009361174A164B9B6943F008039361144A71
:10192C00134B9B6943F040039361114A104B9B6925
:10193C0043F0200393610E4A0D4B9B6923F0100377
:10194C0093610B4A0A4B1B6A23F008031362084A83
:10195C00074B1B6A43F001031362054A044B5B6C93
:10196C0043F40043536400BFBD465DF8047B7047ED
:10197C000004014080B483B000AF78603960094A3C
:10198C007B68D362074A3B685363064A054B1B6866
:10199C0043F00103136000BF0C37BD465DF8047BB8
:1019AC00704700BF0004014080B400AF414A414B76
:1019BC001B6823F0100313603E4A3E4B1B6823F058
:1019CC00200313603B4A3B4B1B6823F0400313601E
:1019DC00384B07229A62374B4FF6FF72DA62354A60
:1019EC00344B9B6943F001039361324A314B9B6941
:1019FC0023F0020393612F4A2E4B1B6A23F0020340
:101A0C0013622C4A2B4B1B6A23F008031362294ADE
:101A1C00284B9B6923F480739361264A254B9B6961
:101A2C0043F400739361234A224B1B6A43F0200357
:101A3C001362204A1F4B1B6A23F0800313621D4A5A
:101A4C001C4B9B6843F0100393601A4A194B9B681C
:101A5C0023F020039360174A164B9B6843F0400316
:101A6C009360144A134B9B6823F001039360114A53
:101A7C00104B9B6823F0020393600E4A0D4B9B683E
:101A8C0043F0040393600B4A0A4B1B6A43F00103B7
:101A9C001362084A074B1B6A43F010031362054A92
:101AAC00044B1B6843F00103136000BFBD465DF897
:101ABC00047B70470000014080B588B000AF7860AF
:101ACC00396000233B610023FB6000237B810023F2
:101ADC003B810023FB610023BB61304B5B6B002B14
:101AEC001AD000237B6114E02C4B5B6B7B812B4B5E
:101AFC009B6B3B817B89FA691344FB613B89BA6917
:101B0C001344BB6100237B8100233B817B69013340
:101B1C007B617B69032BE7DDFB699B08FB61BB6980
:101B2C009B08BB611E4B1B68FA69D31A3B611D4BAA
:101B3C001B68BA69D31AFB603B69022B14D8FB688B
:101B4C00282B11D8164B1B689BB21A467B681A605F
:101B5C00144B1B689BB21A463B681A6001220C217D
:101B6C000320FFF7BDF914E0FB699BB21A467B68B2
:101B7C001A60BB699BB21A463B681A6000220C21A2
:101B8C000320FFF7ADF9064AFB691360054ABB69F0
:101B9C00136000BF2037BD4680BD00BF0000014070
:101BAC00200000202400002080B400AF084B5B6BA9
:101BBC009AB2084B1A80064B9B6B9AB2064B1A8052
:101BCC00034B00221A6100BFBD465DF8047B7047D1
:101BDC0000000140340000203600002080B588B0A1
:101BEC0002AF00237B6000233B6000233B6100239A
:101BFC00FB6000237B61FFF7BDFD00210020FFF798
:101C0C00C9FD01210020FFF7C5FD02210020FFF7CF
:101C1C00C1FD03210020FFF7BDFD04210020FFF7CB
:101C2C00B9FD08210420FFF7B5FD00210420FFF7C2
:101C3C00B1FD01210420FFF7ADFD03220521002099
:101C4C00FEF7DAFE002205210020FFF70FF8022232
:101C5C0009210420FEF7D0FE022300930023022268
:101C6C0006210220FEF73CFB002209210420FEF78E
:101C7C00FDFF002206210220FEF7F8FF01220921B8
:101C8C000420FFF7B7FA032206210220FFF7B2FA6D
:101C9C00FFF78AFEFFF70EFEFFF7D2FDFEF7A0FA64
:101CAC00FEF7DAFAFEF7FCFA03463B613B6940F6B5
:101CBC007C3202FB03F31B0B3B613B69BB60304A7C
:101CCC00BB68136000F060F800F086F82D4B1B68C1
:101CDC003969184600F090F8F8603A463B1D1146F9
:101CEC001846FFF7E9FE3B6840F26B72934294BFD3
:101CFC0001230023DAB2FB68022B94BF01230023DB
:101D0C00DBB21340DBB2002B0CD03B687A699A42F1
:101D1C0001D23B687B617B683A6811461846FFF735
:101D2C0029FECFE73B6840F26B72934294BF0123CC
:101D3C000023DAB2FB68032B8CBF01230023DBB238
:101D4C001340DBB2002B08D07B69013B7B617B68C5
:101D5C0079691846FFF70EFEB4E73B6840F26C72E7
:101D6C00934206D97B683A6811461846FFF702FE83
:101D7C00A8E77B6879691846FFF7FCFDA2E700BF6E
:101D8C00280000202C00002080B584B000AF002378
:101D9C007B600023FB600023BB6011E0FEF780FA40
:101DAC0003467B607B6840F67C3202FB03F31B0B23
:101DBC007B60FA687B681344FB60BB680133BB60D3
:101DCC00BB68002BEADD034AFB68136000BF1037C9
:101DDC00BD4680BD2800002080B400AF044B1B68BA
:101DEC00044A136000BFBD465DF8047B704700BF1A
:101DFC00280000202C00002080B485B000AF786053
:101E0C0039607A683B68D31AFB60FB68002B0BDDEA
:101E1C00FB68642202FB03F31A463B68C3F5376385
:101E2C000C33B2FBF3F300E0002318461437BD4625
:101E3C005DF8047B70470000DFF834D0002103E02C
:101E4C000C4B5B58435004310B480C4B42189A42D4
:101E5C00F6D30B4A02E0002342F8043B094B9A42AA
:101E6C00F9D300F03BF800F0EBF8FFF7B7FE704742
:101E7C0000000320B4200008000000200000002017
:101E8C000000002038000020FEE780B400AF00BF47
:101E9C00BD465DF8047B704780B400AFFEE780B4AC
:101EAC0000AFFEE780B400AFFEE780B400AFFEE702
:101EBC0080B400AF00BFBD465DF8047B704780B4B2
:101ECC0000AF00BFBD465DF8047B704780B400AF27
:101EDC0000BFBD465DF8047B7047000080B500AFC5
:101EEC00164A164BD3F8883043F47003C2F8883086
:101EFC00134A134B1B6843F001031360104B002271
:101F0C009A600F4A0E4B1B6823F0847323F48033C2
:101F1C0013600B4B0B4A5A60094A094B1B6823F49C
:101F2C0080231360064B0022DA6000F00DF8034B9F
:101F3C004FF000629A6000BF80BD00BF00ED00E072
:101F4C00003802401030002480B483B000AF00236E
:101F5C007B6000233B60364A354B1B6843F480336F
:101F6C001360334B1B6803F400333B607B68013315
:101F7C007B603B68002B03D17B68B3F5A06FF0D17D
:101F8C002B4B1B6803F40033002B02D001233B6066
:101F9C0001E000233B603B68012B42D1244A244BD7
:101FAC001B6C43F080531364224A224B1B6843F48E
:101FBC00404313601E4A1E4B9B6893601C4A1C4B8B
:101FCC009B6843F400439360194A194B9B6843F494
:101FDC00A0539360164B184A5A60154A144B1B6851
:101FEC0043F08073136000BF114B1B6803F0007348
:101FFC00002BF9D0114B40F205721A600C4A0C4BB5
:10200C009B6823F003039360094A094B9B6843F0D8
:10201C000203936000BF064B9B6803F00C03082B74
:10202C00F9D100BF0C37BD465DF8047B704700BF8B
:10203C000038024000700040195A4007003C024032
:10204C0070B50D4E0D4CA41BA4100025A54209D152
:10205C000B4E0C4C00F018F8A41BA4100025A54244
:10206C0005D170BD56F8253098470135EEE756F886
:10207C00253098470135F2E7AC200008AC20000869
:10208C00AC200008B0200008F8B500BFF8BC08BCB4
:10209C009E467047F8B500BFF8BC08BC9E4670471A
:0420AC00D101000856
:0420B000AD01000876
:0400000508001E458C
:00000001FF
